:100000000C9446000C9465000C9465000C946500FB
:100010000C9465000C9465000C9465000C946500CC
:100020000C9465000C9465000C9465000C946500BC
:100030000C9465000C9465000C9465000C946500AC
:100040000C9465000C9465000C9465000C9465009C
:100050000C9465000C9465000C9465000C9465008C
:100060000C9465000C9465000C9465000C9465007C
:100070000C9465000C9465000C9465000C9465006C
:100080000C9465000C9465000C94650011241FBE4F
:10009000CFEFD0E4DEBFCDBF11E0A0E0B1E0EEEAEB
:1000A000F1E000E00BBF02C007900D92A231B10752
:1000B000D9F721E0A2E1B1E001C01D92A531B2075C
:1000C000E1F70E94C9000C94D5000C940000CF9376
:1000D000C82F8A3019F48DE00E9467008091C0001B
:1000E00085FFFCCFC093C60080E090E0CF910895DB
:1000F00080911201909113018130910569F018F0FF
:10010000029721F133C081E090E090931301809336
:100110001201109214012EC0009911C08091140197
:10012000833020F48F5F8093140102C01092140179
:1001300082E090E090931301809312011BC081E054
:1001400090E0909313018093120114C0009B07C0AC
:1001500081E090E090931301809312010BC082E044
:1001600090E0909313018093120104C01092130148
:100170001092120180911201909113010197029740
:1001800038F4E0911401F0E0E050FF4F808185B930
:10019000089511B88FEF82B984B915B81092130180
:0E01A000109212010E947800FDCFF894FFCF5C
:1001AE0021120C1200000002000000006700000087
:0201BE0000003F
:00000001FF
